:100000000C94EF000C9417010C9417010C94170139
:100010000C9417010C9417010C9417010C94170100
:100020000C9417010C9417010C9417010C941701F0
:100030000C9417010C9417010C9417010C941701E0
:100040000C94B3090C9417010C94230A0C94FD0929
:100050000C9417010C9417010C9417010C941701C0
:100060000C9494080C94170100407A10F35A00A0E5
:10007000724E18090010A5D4E80000E87648170071
:1000800000E40B54020000CA9A3B000000E1F505B1
:10009000000080969800000040420F000000A086FB
:1000A00001000000102700000000E803000000002D
:1000B0006400000000000A000000000001000000D1
:1000C00000002C76D888DC674F0823DFC1DFAE59EB
:1000D000E1B1B796E5E3E453C63AE651997696E87E
:1000E000E6C28426EB898C9B62ED407C6FFCEFBC02
:1000F0009C9F40F2BAA56FA5F490055A2AF75C932D
:100100006B6CF9676DC11BFCE0E40D47FEF520E662
:10011000B500D0ED902E0300943577050080841E45
:10012000080000204E0A000000C80C333333330FA0
:10013000986E12831141EF8D2114893BE65516CF3D
:10014000FEE6DB18D1844B381BF77C1D901DA4BB49
:10015000E424203284725E228100C9F124ECA1E5FE
:100160003D27005EBCE2613FDD83C29C7E20A3FD93
:100170001F41009D23BE46DB65F88C11AF32CA5784
:10018000E97400000000240027002A00000000009D
:10019000250028002B0000000008000201000003D9
:1001A0000407000000000000000000000000230021
:1001B00026002900040404040404040402020202C8
:1001C000020203030303030301020408102040801A
:1001D000010204081020010204081020550A11240D
:1001E0001FBECFEFD8E0DEBFCDBF13E0A0E0B1E08F
:1001F000E0E9FAE202C005900D92AA39B107D9F7F9
:1002000025E0AAE9B3E001C01D92A834B207E1F7E6
:1002100010E0CFEED0E004C02197FE010E947613DB
:10022000CE3ED107C9F70E94E60A0C9446150C94FD
:10023000000020912104260F3327331F213231057E
:10024000ECF420914704FC0190E080E0243069F058
:1002500082E00895A09121042191AC0141505C4FAE
:10026000A40FB52FB11D2C930196861798F380919A
:100270002104680F6093210480E0089581E00895CF
:10028000089508950895E091F6038091F503E81725
:1002900030F4F0E0EB52FC4F808190E008958FEF56
:1002A0009FEF08959091F6038091F5032FEF3FEFB4
:1002B000981748F4E92FF0E0EB52FC4F208130E032
:1002C0009F5F9093F603C90108958091F503909183
:1002D000F603891B990B0895CF92DF92EF92FF925C
:1002E0000F931F93CF93DF937C01CB018A01209161
:1002F000D403222389F0EB016B01C40ED51ECC156B
:10030000DD0569F06991D701ED91FC910190F081D3
:10031000E02DC7010995F3CF642F0E941901C80190
:10032000DF91CF911F910F91FF90EF90DF90CF90D1
:100330000895CF93DF931F92CDB7DEB769832091E5
:10034000D4032223F9F02091F703203258F021E062
:1003500030E0FC013383228390E080E00F90DF9156
:10036000CF9108958091F803E82FF0E0EC54FC4F12
:10037000998190838F5F8093F8038093F70381E0E6
:1003800090E0ECCF61E0CE0101960E941901F7CF19
:1003900090E0FC01EA56FE4F2491FC01E853FE4F29
:1003A0003491FC01EC54FE4FE491EE23C9F022237A
:1003B00039F0233001F1A8F4213019F1223029F16C
:1003C000F0E0EE0FFF1FE457FE4FA591B4918FB7F9
:1003D000F894EC91611126C030953E233C938FBF79
:1003E00008952730A9F02830C9F0243049F78091CA
:1003F00080008F7D03C0809180008F778093800084
:10040000DFCF84B58F7784BDDBCF84B58F7DFBCF05
:100410008091B0008F778093B000D2CF8091B000F0
:100420008F7DF9CF3E2BDACF1092470481E0809385
:1004300049041092480461E082E10E94C80161E031
:1004400083E10E94C801E9EBF0E080818E7F808328
:1004500080818D7F808388E48093B80085E48093D9
:10046000BC000895CF93DF9391E09093FE0388231F
:10047000B9F0C091B800D091BA008091BC008A7BDD
:100480008093BC0060E082E10E94C80160E083E1EB
:100490000E94C8010E941402D093BA00C093B80011
:1004A000DF91CF910895CF93DF9390E0FC01E85363
:1004B000FE4F24918C549E4FFC0184918823D1F0EF
:1004C00090E0880F991FFC01EE57FE4FA591B49163
:1004D000FC01E457FE4FC591D49161110EC09FB746
:1004E000F8948C91E22FE0958E238C932881E2235F
:1004F000E8839FBFDF91CF9108958FB7F894EC9177
:10050000E22BEC938FBFF6CF3FB7F8948091B00306
:100510009091B103A091B203B091B30326B5A89B0B
:1005200005C02F3F19F00196A11DB11D3FBFBA2F85
:10053000A92F982F8827BC01CD01620F711D811D45
:10054000911D42E0660F771F881F991F4A95D1F7CA
:1005500008958F929F92AF92BF92CF92DF92EF92C7
:10056000FF926B017C010E9484024B015C01C1146B
:10057000D104E104F104B9F00E94840268197909F8
:100580008A099B09683E73408105910580F321E04B
:10059000C21AD108E108F10888EE880E83E0981E9F
:1005A000A11CB11CE4CFFF90EF90DF90CF90BF90E3
:1005B000AF909F908F9008950F931F93CF93DF93E9
:1005C000D0E0C0E0082F10E0C017D107B4F461E01C
:1005D0008DE00E94C8016CE271E080E090E00E9432
:1005E000A90260E08DE00E94C8016CE271E080E049
:1005F00090E00E94A9022196E7CFDF91CF911F9151
:100600000F910895AF92BF92CF92DF92EF92FF9237
:100610000F931F93CF93DF936C017B018B01040F2A
:10062000151FEB015E01AE18BF08C017D10759F0C6
:100630006991D601ED91FC910190F081E02DC60108
:100640000995892B79F7C501DF91CF911F910F9102
:10065000FF90EF90DF90CF90BF90AF900895FC0196
:10066000538D448D252F30E0842F90E0821B930B17
:10067000541710F0CF96089501970895FC01918DBD
:10068000828D981761F0A28DAE0FBF2FB11D5D96C0
:100690008C91928D9F5F9F73928F90E008958FEF62
:1006A0009FEF0895FC01918D828D981731F0828D16
:1006B000E80FF11D858D90E008958FEF9FEF08956D
:1006C000FC01918D228D892F90E0805C9F4F821BD1
:1006D00091098F739927089589E794E00E94600338
:1006E00021E0892B09F420E0822F089580E090E03A
:1006F000892B29F00E946C0381110C94000008954D
:10070000FC01A48DA80FB92FB11DA35ABF4F2C9186
:10071000848D90E001968F739927848FA689B7897D
:100720002C93A089B1898C91837080648C93938D74
:10073000848D981306C00288F389E02D80818F7D17
:1007400080830895EF92FF920F931F93CF93DF93CF
:10075000EC0181E0888F9B8D8C8D98131AC0E889FD
:10076000F989808185FF15C09FB7F894EE89FF89CC
:100770006083E889F98980818370806480839FBF6A
:1007800081E090E0DF91CF911F910F91FF90EF906A
:100790000895F62E0B8D10E00F5F1F4F0F7311277A
:1007A000E02E8C8D8E110CC00FB607FCFACFE889B5
:1007B000F989808185FFF5CFCE010E948003F1CFBA
:1007C000EB8DEC0FFD2FF11DE35AFF4FF0829FB729
:1007D000F8940B8FEA89FB8980818062CFCFCF9319
:1007E000DF93EC01888D8823B9F0AA89BB89E88959
:1007F000F9898C9185FD03C0808186FD0DC00FB6FF
:1008000007FCF7CF8C9185FFF2CF808185FFEDCF7C
:10081000CE010E948003E9CFDF91CF910895CF925E
:10082000DF92EF92FF920F931F93CF93DF93FC0120
:10083000C48121E02093D403C0939A031092F8035B
:100840001092F7038485682B8DE694E00E9499014D
:10085000D091F703D13208F092C00E9484026B015C
:100860007C0180914704811165C082E08093470438
:1008700081E0809349048FEF8093460410926B04CB
:10088000D0936A04A4EBB3E0EAE4F4E080E0D81388
:1008900085C010926C0480916C04CC0FC82BC0935F
:1008A0006C0480914804813009F07CC010924804A7
:1008B0000E9484026B017C0180916C048093BB00D8
:1008C0008091FA039091FB03A091FC03B091FD038A
:1008D000892B8A2B8B2B99F00E9484020091FA03BA
:1008E0001091FB032091FC033091FD036C197D09ED
:1008F0008E099F090617170728073907E0F180912D
:10090000BC0083FDD9CF85EC8093BC000E9484029B
:100910006B017C0180914704823009F445C08091CD
:1009200046048F3F61F180914604803241F180910D
:10093000460425C08091FA039091FB03A091FC032B
:10094000B091FD03892B8A2B8B2B09F48ACF0E944F
:1009500084020091FA031091FB032091FC03309173
:10096000FD036C197D098E099F09061717072807D3
:10097000390708F076CF8091F9030E943202109275
:10098000F8031092F7031092D403DF91CF911F91D7
:100990000F91FF90EF90DF90CF9008959D919193EC
:1009A0008F5F75CF85EEB0CF8091FA039091FB03F6
:1009B000A091FC03B091FD03892B8A2B8B2B09F4AA
:1009C000A9CF0E9484020091FA031091FB032091A9
:1009D000FC033091FD036C197D098E099F090617F0
:1009E00017072807390708F095CFC5CF089590E07D
:1009F00080E00895DC0180E0615090F09D9198279F
:100A0000E92FEF70F0E0EE59FE4F2491E92FE295C7
:100A1000EF70F0E0EE58FE4FE491822F8E27ECCF7E
:100A20000895DC012C911196ED91FC91F89481814F
:100A3000822B81839281322F30959323928387E09A
:100A400090E00197F1F781818323818383E290E035
:100A50000197F1F790817894EFECF0E03197F1F79E
:100A6000922381E009F480E00895FC0190810180E7
:100A7000F281E02D292F209560FF14C0F894828127
:100A8000822382838181892B8183A3E2B0E0119745
:100A9000F1F78281982B9283789487ED90E001970B
:100AA000F1F70895F8948281822382838181892BD2
:100AB0008183AFEFB0E01197F1F78281982B928399
:100AC00078948FE090E0EBCFDF92EF92FF920F935C
:100AD0001F93CF93DF93EC01D62EE42E08E010E0B5
:100AE000FF24F39461E08D2D8F2109F460E0CE01A5
:100AF0000E943505FF0C01501109A1F7E11010C04B
:100B0000F894E981FA819181888180958923818394
:100B1000E981FA8192818881809589238283789402
:100B2000DF91CF911F910F91FF90EF90DF9008958B
:100B3000EF92FF920F931F93CF93DF938C017B0172
:100B400040E065E50E946405E70188E0E80EF11CDD
:100B5000699140E0C8010E946405CE15DF05C1F728
:100B6000DF91CF911F910F91FF90EF900895FC01BD
:100B700090810180F281E02DF8948181292F2095C8
:100B80008223818378943DE743E050E0315029F19E
:100B9000DA011197F1F780818923C1F3F8948281FA
:100BA000822382838181892B81837894ABE7B7E0AC
:100BB0001197F1F7F894818182238183A3E1B1E059
:100BC0001197F1F78081982381E009F080E0789413
:100BD000E3E6F6E03197F1F7089580E008956F922B
:100BE0007F928F929F92AF92BF92CF92DF92EF92BD
:100BF000FF920F931F93CF93DF938C01EB018091B2
:100C00001F05909120050E94B705882309F43FC075
:100C1000B80180911F05909120050E94980540E041
:100C20006EEB80911F05909120050E9464057E0166
:100C30006E0189E0C80ED11C8E01A0901F05B090F6
:100C4000200588E0882E912C712C66246394C501C0
:100C50000E94110581117628660CE1E08E1A910838
:100C6000B1F7F80171928F01CE16DF0631F780914E
:100C70001F05909120050E94B705813041F4F701CE
:100C800081917F01811105C0E017F107C1F790E064
:100C900008C068E0CE010E94FA0491E0288528137C
:100CA000F6CF892FDF91CF911F910F91FF90EF9099
:100CB000DF90CF90BF90AF909F908F907F906F907C
:100CC0000895CF93DF93CDB7DEB729970FB6F89489
:100CD000DEBF0FBECDBFBE016F5F7F4F0E94EF052D
:100CE000882331F08D818F33A9F020F48F31A1F06A
:100CF00080E007C08F3521F08F37D1F78CE001C03D
:100D00008BE029960FB6F894DEBF0FBECDBFDF9102
:100D1000CF9108958AE0F5CF89E0F3CFBF92CF92CB
:100D2000DF92EF92FF920F931F93CF93DF93EC012B
:100D3000B62EC72E8D85811105C0CE010E94B70544
:100D400081110EC01B861D861C8680E0DF91CF912D
:100D50001F910F91FF90EF90DF90CF90BF9008957B
:100D600040E060EFCE010E94640501E0E12CD12C4F
:100D700011E0CE010E941105F82ECE010E9411054E
:100D800091E0F91218C0813099F51134D8F2DB8660
:100D9000D11002C081E08D878B81882399F2239640
:100DA000EB2DFC2DCF01089629912193E817F90727
:100DB000D9F781E0CBCFEE2DF0E0F8120FC08B8594
:100DC0001817A0F4DE01AE0FBF1F13968C9180237D
:100DD00079F4F12C193008F41C87D12EEC0FFD1F8B
:100DE0008381902F9095892383830AC08113F1CF4B
:100DF000FE01EE0DF11D8381802B8383FF24F3948C
:100E00006F2DCE010E9435051F5F000F11F4E39492
:100E100001E087E08E1508F0ACCFB7CFFF920F93BB
:100E20001F93CF93DF938C01F62EE0911F05F09175
:100E30002005138615861486128611861086178261
:100E40001682158214821382C0E0B80180911F05BA
:100E5000909120050E948E06D82F882329F0FC1639
:100E600029F0CF5FFC1688F7D0E008C067E0C80122
:100E70000E94FA04F80197818913F3CF8D2FDF9137
:100E8000CF911F910F91FF9008950F931F93CF93D0
:100E90008C01C62F0E940F046C2F6460C8010E9451
:100EA0000F046C2F6B7FC8010E940F0483EC90E04D
:100EB0000197F1F7CF911F910F9108950F931F9311
:100EC000CF93DF938C01D62FC42F607F642B0E94B9
:100ED000450780E1D89FB00111246C2BC801DF9138
:100EE000CF911F910F910C944507CF93DF93CDB70E
:100EF000DEB728970FB6F894DEBF0FBECDBF98E0DF
:100F0000E2E0F1E0DE01119601900D929A95E1F791
:100F100090914305981708F48FEF90E0880F991F80
:100F200021E030E02C0F3D1F820F931FFC016081F8
:100F3000606840E08BE395E028960FB6F894DEBF3A
:100F40000FBECDBFDF91CF910C945E0741E00E94B0
:100F50005E0781E090E0089585ED8093BC0080916C
:100F6000FA039091FB03A091FC03B091FD03079657
:100F7000A11DB11D23E0B695A795979587952A9554
:100F8000D1F72091BC0024FD03C0109247040895BE
:100F90004091FA035091FB036091FC037091FD03B3
:100FA000452B462B472B69F30097A105B10541F06E
:100FB00025E32A95F1F700000197A109B109E1CFD6
:100FC0008091F9030C943202FB0101900020E9F7B3
:100FD0003197AF01461B570BDC01ED91FC9102806C
:100FE000F381E02D09948F929F92AF92BF920F935D
:100FF0001F93CF93DF93CDB7DEB7A1970FB6F894C9
:10100000DEBF0FBECDBF19A2423008F44AE08E0108
:101010000F5D1F4F842E912CB12CA12CA5019401A2
:101020000E944013E62FB901CA01EA3004F5E05DE1
:10103000D801EE938D01232B242B252B79F790E0FB
:1010400080E0109729F0BD0189E794E00E94E40751
:10105000A1960FB6F894DEBF0FBECDBFDF91CF9142
:101060001F910F91BF90AF909F908F900895E95C72
:10107000DFCFCF93DF93D0E0C0E0009731F0BC0129
:1010800089E794E00E94E407EC0160E471E089E7FD
:1010900094E00E94E4078C0F9D1FDF91CF9108958B
:1010A0006115710511F00C94E40790E080E008955B
:1010B00063E471E089E794E00E9450084AE068EE3A
:1010C00073E080E090E00E94F3078EE491E00E94DC
:1010D000390868EE73E080E090E00C94A9028091FA
:1010E0009E03811108C080919D03811104C081E598
:1010F00091E00C94390860E082E00E94C80160E051
:1011000083E00E94C80110929D0310929E038DE619
:1011100091E00E94390881E00E9475076DE871E056
:101120008BE395E00C9450081F920F920FB60F922C
:1011300011242F933F934F935F936F937F938F93DC
:101140009F93AF93BF93EF93FF938091B900887FF4
:10115000803609F44AC0F0F5883209F4A7C018F5C2
:10116000803109F49BC0B8F4882309F4F9C08830B1
:1011700009F494C0FF91EF91BF91AF919F918F912E
:101180007F916F915F914F913F912F910F900FBE83
:101190000F901F901895883109F488C0803251F75C
:1011A0008093460414C0803409F49DC040F4803319
:1011B000B9F38833F9F68093460485ECB0C08035E6
:1011C00009F485C0883509F496C0883499F60E94E0
:1011D000AC07D0CF883909F48CC038F5883729F0AE
:1011E00050F4883611F0803729F683E08093470465
:1011F0001092450457C0883809F47BC0803919F033
:10120000803809F0B7CF80914504803208F071C072
:10121000E091450481E08E0F809345048091BB00EE
:10122000F0E0EB5DFB4F80833DC0803B39F0E0F4A4
:10123000803A09F479C0883A09F09CCF84E0809321
:1012400047041092220410922104E0911F04F091AF
:10125000200409958091210481110FC081E08093C1
:1012600021041092FF0309C0803C09F4A6CF883CFA
:1012700009F4A3CF883B09F07DCFE091220481E0FF
:101280008E0F80932204F0E0E150FC4F8081809328
:10129000BB00909122048091210429C080916C04AC
:1012A0008093BB0085EC8093BC0064CF90916B046D
:1012B00080916A04981758F5E0916B0481E08E0FD5
:1012C00080936B04F0E0E65BFB4F8081E9CFE09117
:1012D0006B0481E08E0F80936B048091BB00F0E083
:1012E000E65BFB4F808390916B0480916A049817B2
:1012F000C8F285E8D8CFE0916B0481E08E0F80932F
:101300006B048091BB00F0E0E65BFB4F8083809133
:10131000490481115CCF81E08093480484EA809382
:10132000BC001092470426CF85EC8093BC0010923D
:10133000470480914504803230F4E0914504F0E0A8
:10134000EB5DFB4F10826091450470E0E091230457
:10135000F091240485E294E00995109245040ACFA7
:101360001092460434CF1F920F920FB60F921124A1
:101370002F933F938F939F93AF93BF938091AC0331
:101380009091AD03A091AE03B091AF033091AB0348
:1013900023E0230F2D3758F50196A11DB11D209391
:1013A000AB038093AC039093AD03A093AE03B093D3
:1013B000AF038091B0039091B103A091B203B091BB
:1013C000B3030196A11DB11D8093B0039093B103A7
:1013D000A093B203B093B303BF91AF919F918F914C
:1013E0003F912F910F900FBE0F901F90189526E8F8
:1013F000230F0296A11DB11DD2CF1F920F920FB6DF
:101400000F9211242F933F934F935F936F937F938A
:101410008F939F93AF93BF93EF93FF9389E794E0EC
:101420000E948003FF91EF91BF91AF919F918F91A7
:101430007F916F915F914F913F912F910F900FBED0
:101440000F901F9018951F920F920FB60F921124B4
:101450002F938F939F93EF93FF93E0918904F091E3
:101460008A048081E0918F04F091900482FD1BC07A
:101470009081809192048F5F8F73209193048217E3
:1014800041F0E0919204F0E0E758FB4F958F809394
:101490009204FF91EF919F918F912F910F900FBE2A
:1014A0000F901F9018958081F4CFEDE6F4E0138241
:1014B000128288EE93E0A0E0B0E084839583A68357
:1014C000B78324E131E031832083E9E7F4E013823C
:1014D000128284839583A683B78386E291E0918309
:1014E000808385EC90E09587848784EC90E09787F3
:1014F000868780EC90E0918B808B81EC90E0938BE1
:10150000828B82EC90E0958B848B86EC90E0978BBD
:10151000868B118E128E138E148EEBE3F5E0138200
:10152000128288E391E091838083118687E284832D
:1015300084E1828784E08387148660E00E945302FE
:10154000ECECF1E0E491ADE2B5E0EC93E8EBF1E036
:10155000E491F0E0EE0FFF1FE655FE4F8591949168
:1015600012969C938E9311971B961C921B971D9617
:101570001C921D971C961C921C971A961C921A97E7
:1015800019961C92199718961C92189717961C92E8
:10159000179716961C92169715961C9215971496E7
:1015A0001C92149713961C921397E6E1F5E0168AA5
:1015B000158A1182B287A18717821086108289E06E
:1015C000838381E08483858386830895CF93DF932B
:1015D000CDB7DEB729970FB6F894DEBF0FBECDBFEB
:1015E000789484B5826084BD84B5816084BD85B5FE
:1015F000826085BD85B5816085BD80916E0081600A
:1016000080936E00109281008091810082608093AF
:1016100081008091810081608093810080918000B1
:101620008160809380008091B10084608093B100DC
:101630008091B00081608093B00080917A008460D6
:1016400080937A0080917A00826080937A00809102
:101650007A00816080937A0080917A00806880931C
:101660007A001092C100E0918904F0918A0482E02E
:101670008083E0918504F09186041082E0918704D4
:10168000F09188048FEC808310929104E0918D0496
:10169000F0918E0486E08083E0918B04F0918C04BD
:1016A000808180618083E0918B04F0918C04808143
:1016B00088608083E0918B04F0918C048081806845
:1016C0008083E0918B04F0918C0480818F7D8083F6
:1016D00068E971E089E794E00E945008E0911F05F5
:1016E000F0912005138615861486128611861086C1
:1016F0001782168215821482138210921D05109291
:101700001E0511E0BE016F5F7F4F80911F05909114
:1017100020050E948E06882309F45FC067E0CE0191
:1017200001960E94FA0498858913ECCF80911D05DB
:101730008F5F80931D058981883231F008F044C0A5
:10174000803111F08232F1F680911E058F5F809317
:101750001E0580911605811128C080911F0590916A
:1017600020050E94B705BE016F5F7F4F80911F0566
:10177000909120050E94980540E064EB80911F0540
:10178000909120050E94640580911F05909120058D
:101790000E941105082F80911F05909120050E943D
:1017A000B705011102C0109316058981803199F0A7
:1017B000CE0101960E94610690911905981708F0D4
:1017C000A1CF809319059ECF8B3309F4BDCF82340E
:1017D00009F098CFB9CF8CE0EFCF6CEA71E089E7E0
:1017E00094E00E94500860911D0570E090E080E058
:1017F0004AE00E94F30783EB91E00E9439086DEB09
:1018000071E089E794E00E945008809116058823D2
:1018100009F4D0C085EC92E00E94390860E083EAC8
:1018200093E00E940E07811104C081ED91E00E94B7
:10183000390865EF71E089E794E00E94500803EAF7
:1018400013E08BEAE82E83E0F82EF80181918F01F6
:10185000803130F463EF71E089E794E00E94500832
:10186000F8013197608170E090E080E040E10E94F3
:10187000F307E016F10649F760E471E089E794E0C8
:101880000E94E4078091A303803109F46FC0BE0178
:101890006F5F7F4F83EA93E00E94EF05882309F48E
:1018A00065C08D818F3109F461C08FE18D83809196
:1018B0001F05909120050E94B70563EA73E08091AF
:1018C0001F05909120050E94980540E06EE48091EC
:1018D0001F05909120050E94640540E06B81809176
:1018E0001F05909120050E94640540E06C81809165
:1018F0001F05909120050E9464058091A30380310B
:1019000041F040E06D8180911F05909120050E947B
:10191000640580911F059091200520911C052223CC
:1019200019F10E94B705882309F163EA73E08091F9
:101930001F05909120050E9498054091160568E4C6
:1019400080911F05909120050E94640580911605E5
:10195000811133C064E170E080E090E00E94A90250
:1019600080911F05909120050E94B70589E0809322
:10197000190580911D058230E0F110E080911D0570
:101980001817B8F5809119058C3099F1612FCE01A7
:1019900001960E940E078981803149F1CE0101969E
:1019A0000E94610690911905981710F4809319050B
:1019B0001F5FE4CF89E891E02FCF8091170588233E
:1019C00029F060E0809118050E94C80164E170E090
:1019D00080E090E00E94A90280911705882309F415
:1019E000BFCF61E0809118050E94C801B9CF8CE09B
:1019F000D9CF68E072E089E794E00E9450088091B6
:101A0000A303803109F415C183EA93E00E946106C3
:101A1000682F70E090E080E04AE00E94F30760E405
:101A200071E089E794E00E94E40761E083E00E94AE
:101A3000530261E082E00E9453021092F60310927A
:101A4000F5031092F8031092F7030E94140280E449
:101A500091E09093200480931F0481E491E090939F
:101A6000240480932304109240058091460582301F
:101A700018F098E0909340058093430562E370E08E
:101A800080E090E00E94A902609147058BE395E019
:101A90000E940F0468EE73E080E090E00E94A902CB
:101AA00060E38BE395E00E9445070BE416E4C80170
:101AB0000197F1F760E38BE395E00E944507C801C9
:101AC0000197F1F760E38BE395E00E94450783E51A
:101AD00092E00197F1F760E28BE395E00E94450701
:101AE00060914005606240E08BE395E00E945E07F4
:101AF00084E08093410540E06CE08BE395E00E9438
:101B00005E0740E061E08BE395E00E945E078BE3B7
:101B10009FE10197F1F780914405882319F080E057
:101B20000E94750782E08093420540E066E08BE307
:101B300095E00E945E0740E062E08BE395E00E9442
:101B40005E078BE39FE10197F1F788E080934705FB
:101B500060E08BE395E00E940F04B0E0EB2EB0E074
:101B6000FB2E1CE3C12ED12C6EE172E089E794E0DC
:101B70000E94500880911F05909120050E94B70592
:101B800040E06CEC80911F05909120050E94640557
:101B90004091160564E480911F05909120050E94F4
:101BA000640580911A05882391F1E09119058091CF
:101BB0001B05882309F43FC08091160581113BC0A5
:101BC0008FB7F8948090AC039090AD03A090AE03D3
:101BD000B090AF038FBF80911F05909120050E94A8
:101BE00011058130A1F02FB7F8948091AC0390914A
:101BF000AD03A091AE03B091AF032FBF881999092F
:101C0000AA09BB098E3E9240A105B10520F381E4EB
:101C100092E00E943908BE016F5F7F4F83EA93E034
:101C20000E94EF0581112EC060E070E08EEF92EC13
:101C300068C08CE0EDCEE9508EEE92E0E33038F4EF
:101C4000F0E0EE0FFF1FE65FFE4F808191814C01B7
:101C5000990FAA08BB0880911705882329F060E036
:101C6000809118050E94C801C501B4010E94A90213
:101C700080911705882359F261E0809118050E9430
:101C8000C801C5CF6A8170E0762F6627770F770F7E
:101C9000770F298148E0249F90011124262B372BB0
:101CA0008091A3038031E1F468856623C9F070E078
:101CB0008F81FB01E81BF109CF019695982F8827AA
:101CC000979587950E942C13CB018097B90153E01B
:101CD000660F771F5A95E1F760789C01260F371F32
:101CE0002138F4EE3F070CF49FCFB901330F880B76
:101CF000990B0E941F1420E030E040E05CE30E945A
:101D0000D41460939F037093A0038093A1039093D6
:101D1000A20320E030E04EEF52EC0E94E91388234A
:101D200009F4A0C066E472E089E794E00E945008DC
:101D300080909F039090A003A090A103B090A20375
:101D4000A5019401C501B4010E944115882309F43D
:101D5000EEC06EE872E089E794E00E94E4078AE949
:101D600092E00E94390880E00E9475076CE972E0F9
:101D70008BE395E00E94500860919F037091A0034F
:101D80008091A1039091A2038E010F5F1F4F21E06C
:101D900043E00E94A010B8018BE395E00E94500838
:101DA00060EA72E08BE395E00E94500821E043E096
:101DB00060E070E080ED91E40E94A010B8018BE338
:101DC00095E00E9450086AE972E08BE395E00E947A
:101DD000500820E030E040ED51E460919F037091A5
:101DE000A0038091A1039091A2030E947C134B0158
:101DF0005C0120E030E0A9010E94E91387FF44C1A3
:101E000020E030E040E050ECC501B4010E94E9134D
:101E100087FF37C180919D0381112EC180919B0363
:101E200090919C03992309F41DC1823008F011C1DF
:101E30008F5F80939B0311E010939E0386EA92E0EC
:101E40000E94390861E082E00E94C80110939D035E
:101E500081E00E94750768EC72E08BE395E00E94D8
:101E6000500814C08DE492E00E94390889E792E09E
:101E70000E94390881E00E94750769E772E08BE3F0
:101E800095E00E9450088AE00E94DC0220E030E0E9
:101E900040ED51E460919F037091A0038091A103F4
:101EA0009091A2030E947C134B015C0120E030E082
:101EB000A9010E94CF1418160CF417C1C501B40172
:101EC000905820E030E040E050E40E94CF14181613
:101ED0000CF02DC180910001909101011816190696
:101EE0000CF415C120E030E0A901C501B4010E9445
:101EF000E91387FFFDC08FE293E00E94390881E07B
:101F00000E9475076EE373E08BE395E00E94500832
:101F100082E00E94DC02E114F10409F425CE0E9463
:101F20006C03882309F420CE0E9400001DCE2401FA
:101F30003501E89477F82FEF3FEF4FE75FE7C301F4
:101F4000B2010E94411581110DC02FEF3FEF4FE705
:101F50005FE7C301B2010E94E91318161CF462E99D
:101F600072E0F9CE2FEF3FEF4FE75FE4C501B40118
:101F70000E94CF1418161CF466E972E0ECCE2FEF25
:101F80003FEF4FE75FECC501B4010E94E91387FD05
:101F9000F3CF20E030E0A901C501B4010E94E913AC
:101FA00087FF09C06DE289E794E00E94A203B7FAB7
:101FB000B094B7F8B0942AE037ED43EA5BE3C5018B
:101FC000B4010E947D132B013C010E94EE134B01D2
:101FD0005C010E941D149B01AC01C301B2010E946F
:101FE0007C132B013C014AE0C501B4010E94F307B8
:101FF0006EE289E794E00E94A20320E030E040E234
:1020000051E4C301B2010E94D4142B013C010E948F
:10201000EE134B01B12CA12C4AE0C501B4010E9482
:10202000F307C501B4010E941D149B01AC01C3015B
:10203000B2010E947C1320E030E040E251E40E94B3
:10204000D4140E94EE1390E080E04AE00E94F3076F
:1020500086CE10929B0310929C0360E083E00E9466
:10206000C801E9CE883008F4E3CE81E080939C0378
:1020700010929B0361E0F2CF82ED92E00E9439085A
:1020800005CF0E946F0802CF20E030E0A901C50112
:10209000B4010E94CF141816A4F720E030E040E00D
:1020A00050E4C501B4010E94CF14181654F7809172
:1020B0009E03811117C060E082E00E94C80161E0C8
:1020C00083E00E94C80110929D0381E080939E03EB
:1020D0008DEE92E00E94390881E00E9475076DE064
:1020E00073E0BBCE87E193E0C9CFC501B401E9CE6F
:1020F0008AE493E00E94390881E00E94750769E54F
:1021000073E08BE395E00E94500883E002CF85E600
:1021100093E00E943908809100019091010101979C
:1021200090930101809300010E945808F4CE87E843
:1021300093E00E943908D0920101C0920001F4CFCF
:10214000EF920F931F93CF93DF93E80134E047FDA5
:1021500034E1042E000C550B57FF03C051954195F7
:102160005109E32E022F242FAE010E94BE10CE0192
:10217000DF91CF911F910F91EF900895A9E0B0E00A
:10218000E4ECF0E10C94FB126A01F22EB02E102F59
:10219000FBE3AF2EA01608F41BE31F5F012F27E01F
:1021A000AE014F5F5F4F0E941D12BC018981982FC5
:1021B0009970913009F43FC09BE2E1FC04C09E2D70
:1021C0009170E0FC3AC05E2D5071E82FE87083FFFB
:1021D00046C084E0911101C083E0EF2DE81B8F150C
:1021E00008F0E0E0D6018E2F20E2552351F199232B
:1021F00029F0D6019C93C60101966C0196012D5FD2
:102200003F4FE2FE24C08EE4D6018C9391E41196F8
:102210009C93119712968C93D9018E2F90E2811185
:102220001BC0E20FF32FF11D10828EEF9FEF299656
:10223000ECE00C9417139DE2C6CF90E2C4CF2D932F
:1022400081508111FCCFCE0ED11CE0E0D0CF8EE6C4
:10225000D6018C9391E6DBCF9D938150E0CF482F40
:10226000447082FF3DC084E0911101C083E08F156E
:1022700010F4EF2DE81BD6018E2F20E2552309F133
:10228000992329F0D6019C93C60101966C01960111
:102290002D5F3F4FE2FE1BC089E4D6018C938EE494
:1022A00011968C93119786E412968C93D9018E2FF8
:1022B00090E2882309F4B5CF9D938150FACF2D93F6
:1022C00081508111FCCFCE0ED11CE0E0D9CF89E640
:1022D000D6018C938EE611968C93119786E6E4CF07
:1022E0009B0177FF02C030E020E0A1E0B0E0911157
:1022F00002C0B0E0A0E0F9013196AE0FBF1F8B2CF9
:10230000912CBB2009F461C05401EFEFAE1ABE0A54
:10231000AA0DBB1DFA161B0619F014F04F2D4A1B0F
:10232000511188C0E3FC59C07601A42FB0E2A1117D
:102330004FC0C40ED11C992309F45BC040E0D60104
:102340001196F60190836D01552309F448C0012FC1
:10235000060F9A81582F507184FF03C0913309F4FE
:10236000015010160CF047C0093008F008E0EEE20A
:10237000FE2E5B01A01AB108850191948194910809
:102380002F3F320729F4D601FC92F60131966F01F6
:102390006217730794F1021713077CF5DB01A21B88
:1023A000B30BAA24A394B12CAC0EBD1EAA0DBB1D69
:1023B00011968C9121503109D601119628153905B5
:1023C000F4F0F60180836D01DBCFB12CA12CA0CFFE
:1023D000F701B1937F01A150AACF9111B0CFD601DF
:1023E000942F50E302C05D9391509111FCCFC40E25
:1023F000D11C40E0ACCF01E0BACF80E3DBCF621765
:10240000730731F4963388F4953311F4552369F04A
:10241000F6018083FD01842F90E2811108C0A40F92
:10242000B11D1C9290E080E002CF81E3F1CF919347
:102430008150F3CF911183CF8ACF283008F027E065
:102440003327DA01990F311D87FD916000966105F0
:10245000710539F432602E5F3D9330E32A95E1F740
:1024600008959F3F30F080387105610509F03C5FA9
:102470003C5F3D93913008F08068911DDF93CF93CE
:102480001F930F93FF92EF92192F987F9695E92F44
:1024900096959695E90FFF27EE53FF4F992733271F
:1024A000EE24FF24A701E70105900894079428F47F
:1024B000360FE71EF81E491F511D660F771F881F34
:1024C000991F0694A1F70590079428F4E70EF81ECB
:1024D000491F561FC11D770F881F991F661F06943D
:1024E000A1F70590079428F4F80E491F561FC71F3F
:1024F000D11D880F991F661F771F0694A1F70590BD
:10250000079420F4490F561FC71FD81F990F661F45
:10251000771F881F0694A9F784911095177041F0D2
:10252000D695C79557954795F794E7941A95C1F7AF
:10253000E8E6F0E0689415901591359165919591D4
:1025400005907FE27395E118F10A430B560BC90B16
:10255000D009C0F7E10CF11E431F561FC91FD01D43
:102560007EF4703311F48A95E6CFE894015030F090
:10257000080F0AF40027021708F4202F2395022FD2
:102580007A3328F079E37D932A95E9F710C07D939B
:102590002A9589F606949795679537951795179418
:1025A000E118F10A430B560BC90BD00998F023959B
:1025B0007E9173957A3308F070E37C932013B8F71B
:1025C0007E9170617D9330F0839571E37D9370E32C
:1025D0002A95E1F71124EF90FF900F911F91CF9171
:1025E000DF91992787FD909508952F923F924F9202
:1025F0005F926F927F928F929F92AF92BF92CF9293
:10260000DF92EF92FF920F931F93CF93DF93CDB79B
:10261000DEB7CA1BDB0B0FB6F894DEBF0FBECDBF13
:1026200009942A88398848885F846E847D848C84E4
:102630009B84AA84B984C884DF80EE80FD800C81ED
:102640001B81AA81B981CE0FD11D0FB6F894DEBFD0
:102650000FBECDBFED01089597FB072E16F4009431
:1026600007D077FD09D00E94621307FC05D03EF425
:10267000909581959F4F0895709561957F4F08952E
:10268000A1E21A2EAA1BBB1BFD010DC0AA1FBB1F76
:10269000EE1FFF1FA217B307E407F50720F0A21BE8
:1026A000B30BE40BF50B661F771F881F991F1A9455
:1026B00069F760957095809590959B01AC01BD017F
:1026C000CF010895AA1BBB1B51E107C0AA1FBB1F66
:1026D000A617B70710F0A61BB70B881F991F5A95AE
:1026E000A9F780959095BC01CD010895EE0FFF1FCD
:1026F0000590F491E02D09945058BB27AA270E9419
:1027000094130C9495140E94871438F00E948E1430
:1027100020F039F49F3F19F426F40C9484140EF43D
:10272000E095E7FB0C947E14E92F0E94A61458F361
:10273000BA17620773078407950720F079F4A6F5A6
:102740000C94C8140EF4E0950B2EBA2FA02D0B019B
:10275000B90190010C01CA01A0011124FF27591BE6
:1027600099F0593F50F4503E68F11A16F040A22FEC
:10277000232F342F4427585FF3CF4695379527955D
:10278000A795F0405395C9F77EF41F16BA0B620B5C
:10279000730B840BBAF09150A1F0FF0FBB1F661FA3
:1027A000771F881FC2F70EC0BA0F621F731F841FE6
:1027B00048F4879577956795B795F7959E3F08F00C
:1027C000B0CF9395880F08F09927EE0F97958795CE
:1027D00008950E945A1408F481E008950E94AE14EE
:1027E00088F09F5798F0B92F9927B751B0F0E1F0D2
:1027F000660F771F881F991F1AF0BA95C9F714C082
:10280000B13091F00E94C814B1E008950C94C8143E
:10281000672F782F8827B85F39F0B93FCCF38695BA
:1028200077956795B395D9F73EF490958095709517
:1028300061957F4F8F4F9F4F0895E89409C097FB94
:102840003EF490958095709561957F4F8F4F9F4F87
:102850009923A9F0F92F96E9BB279395F6958795CB
:1028600077956795B795F111F8CFFAF4BB0F11F48E
:1028700060FF1BC06F5F7F4F8F4F9F4F16C0882335
:1028800011F096E911C0772321F09EE8872F762F6B
:1028900005C0662371F096E8862F70E060E02AF0AC
:1028A0009A95660F771F881FDAF7880F9695879598
:1028B00097F90895990F0008550FAA0BE0E8FEEF6D
:1028C00016161706E807F907C0F012161306E407F4
:1028D000F50798F0621B730B840B950B39F40A26ED
:1028E00061F0232B242B252B21F408950A2609F4CB
:1028F000A140A6958FEF811D811D089597F99F67CF
:1029000080E870E060E008959FEF80EC0895002477
:102910000A941616170618060906089500240A9444
:1029200012161306140605060895092E0394000CCA
:1029300011F4882352F0BB0F40F4BF2B11F460FF59
:1029400004C06F5F7F4F8F4F9F4F089557FD905882
:10295000440F551F59F05F3F71F04795880F97FB63
:10296000991F61F09F3F79F087950895121613061D
:102970001406551FF2CF4695F1DF08C0161617064C
:102980001806991FF1CF8695710561050894089581
:10299000E894BB2766277727CB0197F908950E9413
:1029A0005A1408F48FEF08950E94E7140C949514BC
:1029B0000E94871438F00E948E1420F0952311F0A5
:1029C0000C947E140C94841411240C94C9140E9449
:1029D000A61470F3959FC1F3950F50E0551F629FA9
:1029E000F001729FBB27F00DB11D639FAA27F00D68
:1029F000B11DAA1F649F6627B00DA11D661F829F8F
:102A00002227B00DA11D621F739FB00DA11D621F73
:102A1000839FA00D611D221F749F3327A00D611D90
:102A2000231F849F600D211D822F762F6A2F112472
:102A30009F5750409AF0F1F088234AF0EE0FFF1FA5
:102A4000BB1F661F771F881F91505040A9F79E3FFC
:102A5000510580F00C947E140C94C9145F3FE4F38C
:102A6000983ED4F3869577956795B795F795E79552
:102A70009F5FC1F7FE2B880F911D9695879597F95B
:102A800008950E945A14880B990B0895F894FFCF6B
:102A90003C0000004000140054005E00BC007701C0
:102AA0000000000099016C01F70442016501520128
:102AB000430100000000A20302032F03EF036003A1
:102AC0003E03520300000000A6070203F704F604C9
:102AD0000D0A00534C454550494E473A20006D734E
:102AE000005354414C455F54454D503A2053544196
:102AF00054455F554E4348414E4745440053544169
:102B00004C455F54454D503A2046414E3D4F464658
:102B10002C204845415445523D4F464600535441B0
:102B20004C455F54454D50004C6F636174696E674E
:102B300020646576696365732E2E2E00466F756E70
:102B400064200020646576696365732E00506172AD
:102B5000617369746520706F7765722069733A20BC
:102B600000556E61626C6520746F2066696E64202A
:102B70006164647265737320666F72204465766960
:102B800063652030004465766963652030204164C8
:102B900064726573733A200044657669636520301A
:102BA000205265736F6C7574696F6E3A20005445DE
:102BB0004D505F493A2052657175657374696E674F
:102BC0002074656D7065726174757265732E2E2E3A
:102BD00000444F4E450054454D503A200054454D59
:102BE000505F4552524F523A20436F756C64206ECD
:102BF0006F7420726561642074656D7065726174B4
:102C000075726520646174610054454D505F455292
:102C1000524F523A204661696C65642121006E6111
:102C20006E00696E66006F7666004300543A2000BD
:102C300043203D3E20004845415445525F54555283
:102C40004E5F4F4E3A204845415445523D4F4E2C21
:102C50002046414E3D4F4E0048454154494E472184
:102C600021004845415445525F4F4E3A205354414C
:102C700054455F554E4348414E4745440046414EFA
:102C80005F5455524E5F4F4E3A2046414E3D4F4E97
:102C90002C204845415445523D4F464600434F4F36
:102CA0004C494E4721210046414E5F4F4E3A20533A
:102CB000544154455F554E4348414E4745440054A6
:102CC000454D505F5741544348444F473A2048458B
:102CD000415445525F4641494C0054454D505F5761
:102CE00041544348444F473A20434F4F4C45525F6D
:102CF0004641494C0054454D505F57415443484468
:102D00004F473A2057414954494E475F464F525F1B
:102D10004348414E47450054454D505F5741544349
:0A2D200048444F473A204F4B000093
:00000001FF
